:100000000C946C000C9494000C9494000C943704A1
:100010000C9494000C9494000C9494000C94940010
:100020000C9494000C9494000C9494000C94940000
:100030000C9494000C9494000C9494000C949400F0
:100040000C940D0D0C9494000C94370A0C94110A26
:100050000C9494000C9494000C9494000C949400D0
:100060000C9494000C9494000000000024002700DD
:100070002A000000000023002600290000010203DE
:10008000040506070001020304050001020304053C
:1000900000000000250028002B00040404040404D0
:1000A0000404020202020202030303030303010227
:1000B00004081020408001020408102001020408F6
:1000C00010200000000800020100000304070000E7
:1000D000000000000000B90F11241FBECFEFD8E0D0
:1000E000DEBFCDBF11E0A0E0B1E0E8E5F1E202C083
:1000F00005900D92AC36B107D9F723E0ACE6B1E03C
:1001000001C01D92A23AB207E1F710E0CCE6D0E0C0
:1001100004C02197FE010E949010CB36D107C9F789
:100120000E94B30D0C94AA100C94000080E991E099
:100130000895389A089580E090E00895FC0185853F
:1001400096850895CF93DF9300D000D000D0CDB72F
:10015000DEB7AB011C821D821E82DC01ED91FC9199
:100160000190F081E02D19821A821B829E012F5F7F
:100170003F4FBE016C5F7F4F099526960FB6F894EE
:10018000DEBF0FBECDBFDF91CF9108954F925F923A
:100190006F927F928F92AF92CF92DF92EF92FF9207
:1001A0000F931F93CF93DF933C01EB010F960E94B7
:1001B000A40DF894E881F98158B1516088B18E7F1F
:1001C00088B9DA849F812D2D291B922F2F836F856B
:1001D0004A805B807D85FC84EE847F5FF394E394AA
:1001E0003E814885C984AB841181D20120E0C32FB0
:1001F000022F322F3181112788943111390F08F4E1
:100200003FEF9195889470FD130F1795889471FDB9
:10021000130F1795889472FD130F1795889473FD2B
:10022000130F1795889474FD130F1795889475FD17
:10023000130F1795889476FD130F1795889477FD03
:10024000130F17958894232F7111212F9D0D122FB5
:10025000002C58B900C017FF88B930812227889434
:1002600000C000C0002C88B931113C0F00C0002C28
:1002700058B900C016FF88B908F43FEFC1958894BB
:1002800000C000C0002C88B9F0FC230F00C0002C77
:1002900058B900C015FF88B927958894F1FC230F41
:1002A00000C000C0002C88B92795889400C0002C9D
:1002B00058B900C014FF88B9F2FC230F2795889421
:1002C00000C000C0002C88B9F3FC230F00C0002C34
:1002D00058B900C013FF88B927958894F4FC230F00
:1002E00000C000C0002C88B92795889400C0002C5D
:1002F00058B900C012FF88B9F5FC230F27958894E0
:1003000000C000C0002C88B9F6FC230F00C0002CF0
:1003100058B900C011FF88B927958894F7FC230FBE
:1003200000C000C0002C88B92795889400C0002C1C
:1003300058B900C010FF88B9132FF110122FCC0D3F
:1003400000C000C0002C88B900C000C0002C58B903
:1003500000C017FF88B932812227889400C000C0EE
:10036000002C88B93111340F00C0002C58B900C0DE
:1003700016FF88B908F43FEFE60FF11D00C000C07A
:10038000002C88B9E0FC230F00C0002C58B900C035
:1003900015FF88B927958894E1FC230F00C000C0A1
:1003A000002C88B92795889400C0002C58B900C04B
:1003B00014FF88B9E2FC230F2795889400C000C081
:1003C000002C88B9E3FC230F00C0002C58B900C0F2
:1003D00013FF88B927958894E4FC230F00C000C060
:1003E000002C88B92795889400C0002C58B900C00B
:1003F00012FF88B9E5FC230F2795889400C000C040
:10040000002C88B9E6FC230F00C0002C58B900C0AE
:1004100011FF88B927958894E7FC230F00C000C01E
:10042000002C88B92795889400C0002C58B900C0CA
:1004300010FF88B9132FE110122F419500C000C0A2
:10044000002C88B94A0D00C000C058B900C017FF81
:1004500088B931812227889400C000C0002C88B957
:100460003111390F00C0002C58B900C016FF88B9EF
:1004700008F43FEF9195889400C000C0002C88B923
:1004800070FD230F00C0002C58B900C015FF88B9BB
:100490002795889471FD230F00C000C0002C88B9F7
:1004A0002795889400C0002C58B900C014FF88B963
:1004B00072FD230F2795889400C000C0002C88B9D6
:1004C00073FD230F00C0002C58B900C013FF88B97A
:1004D0002795889474FD230F00C000C0002C88B9B4
:1004E0002795889400C0002C58B900C012FF88B925
:1004F00075FD230F2795889400C000C0002C88B993
:1005000076FD230F00C0002C58B900C011FF88B938
:100510002795889477FD230F00C000C0002C88B970
:100520002795889400C0002C58B900C010FF88B9E6
:10053000132F7111122F9D0D00C000C0002C88B91F
:10054000119709F086CE20EE31E0D2010E946A10A8
:10055000DC01CB01F4E0B695A79597958795FA95C0
:10056000D1F720E030E0A9016AE9469E040C411D64
:10057000569E400D511D1124450D511D840F951F90
:10058000A11DB11D893E43E09407A105B10508F402
:1005900034C0885E9340A109B10942E0B695A795A1
:1005A000979587954A95D1F747E0849F080E211DBE
:1005B000949F200D311D1124290F311D60916F0171
:1005C00070E0860F971F820F931F4091CD015091CD
:1005D000CE016091CF017091D001292F3327420FB6
:1005E000531F611D711D4093CD015093CE01609347
:1005F000CF017093D00180936F0178940E94AE0C6C
:10060000F301708B6787DF91CF911F910F91FF905E
:10061000EF90DF90CF90AF908F907F906F905F9032
:100620004F9008950F931F93CF93DF93CDB7DEB70D
:1006300062970FB6F894DEBF0FBECDBF8C01F901F3
:10064000DC011C968C917A8369835C834B835E8387
:100650004D8390819D8791819E8792819F87813074
:1006600029F4CE0101960E94570D06C01C861B86F8
:100670001A86198618861F8283E0888B1A8A198A3F
:10068000D801ED91FC910484F585E02DBE016F5FEA
:100690007F4FC801099562960FB6F894DEBF0FBE72
:1006A000CDBFDF91CF911F910F9108950F931F93AD
:1006B000CF93DF93CDB7DEB762970FB6F894DEBF66
:1006C0000FBECDBF8C01F901DC011C968C917A83A1
:1006D00069835C834B835E834D8390819D87918189
:1006E0009E8792819F87813029F4CE0101960E94D6
:1006F000570D06C01C861B861A86198618861F820F
:10070000188A1A8A198AD801ED91FC910484F5851A
:10071000E02DBE016F5F7F4FC801099562960FB64D
:10072000F894DEBF0FBECDBFDF91CF911F910F9127
:100730000895CF93DF93EBECF0E08491E7EBF0E0EA
:10074000D491E3EAF0E0C491CC2309F43CC08111D8
:100750000E94850CEC2FF0E0EE0FFF1FEE58FF4FCC
:10076000A591B491EC91ED2371F181E00E949A0B77
:1007700081E080936C0180E090E02FEF30917D026A
:10078000E0918002F091810237FF03C0E80FF91F6A
:1007900002C0E81BF90B2083218322830397823F49
:1007A0003EEF930759F7C1E0C09370028C2F0E946F
:1007B000690A62E470E080E090E00E94D30CCF5FB1
:1007C000C03491F720C080E00E949A0B10926C0117
:1007D000C0EE8C2F0E94C70B809170020E94690AA4
:1007E00062E470E080E090E00E94D30CC85089F78A
:1007F00080916C01811107C061E270E080E090E0BF
:100800000E94D30CF5CFDF91CF910895FC0184E0D5
:1008100091E091838083138212828FEF8683878396
:10082000808781878287838781E084871686158603
:10083000158214828091D1019091D201892B21F4EB
:10084000F093D201E093D101A0916D01B0916E01BE
:10085000109721F01596FC93EE931497F0936E0188
:10086000E0936D0184E191E09183808308951F926C
:100870000F920FB60F9211242F933F934F935F93D4
:100880006F937F938F939F93AF93BF93CF93EF9388
:10089000FF9323B1C091700190917E0180917D0101
:1008A000322F309583239223892B90916B00C2279E
:1008B000C923C82320937001CC2351F1C0FF05C088
:1008C000E0917101F09172010995C1FF05C0E091BD
:1008D0007301F09174010995C2FF05C0E0917501A3
:1008E000F09176010995C3FF05C0E0917701F09181
:1008F00078010995C4FF05C0E0917901F0917A0172
:100900000995C5FF05C0E0917B01F0917C01099537
:10091000FF91EF91CF91BF91AF919F918F917F9177
:100920006F915F914F913F912F910F900FBE0F905C
:100930001F90189580E991E008953A9A08954F9292
:100940005F926F927F928F92AF92CF92DF92EF92EF
:10095000FF920F931F93CF93DF933C01EB010F9610
:100960000E94A40DF894E881F98158B1546088B1CF
:100970008B7F88B9DA849F812D2D291B922F2F839D
:100980006F854A805B807D85FC84EE847F5FF39475
:10099000E3943E814885C984AB841181D20120E073
:1009A000C32F022F322F3181112788943111390F33
:1009B00008F43FEF9195889470FD130F1795889474
:1009C00071FD130F1795889472FD130F1795889476
:1009D00073FD130F1795889474FD130F1795889462
:1009E00075FD130F1795889476FD130F179588944E
:1009F00077FD130F17958894232F7111212F9D0DCB
:100A0000122F002C58B900C017FF88B93081222757
:100A1000889400C000C0002C88B931113C0F00C080
:100A2000002C58B900C016FF88B908F43FEFC195F3
:100A3000889400C000C0002C88B9F0FC230F00C0CF
:100A4000002C58B900C015FF88B927958894F1FC8F
:100A5000230F00C000C0002C88B92795889400C0DF
:100A6000002C58B900C014FF88B9F2FC230F279559
:100A7000889400C000C0002C88B9F3FC230F00C08C
:100A8000002C58B900C013FF88B927958894F4FC4E
:100A9000230F00C000C0002C88B92795889400C09F
:100AA000002C58B900C012FF88B9F5FC230F279518
:100AB000889400C000C0002C88B9F6FC230F00C049
:100AC000002C58B900C011FF88B927958894F7FC0D
:100AD000230F00C000C0002C88B92795889400C05F
:100AE000002C58B900C010FF88B9132FF110122F35
:100AF000CC0D00C000C0002C88B900C000C0002C84
:100B000058B900C017FF88B932812227889400C0E5
:100B100000C0002C88B93111340F00C0002C58B926
:100B200000C016FF88B908F43FEFE60FF11D00C0C2
:100B300000C0002C88B9E0FC230F00C0002C58B97D
:100B400000C015FF88B927958894E1FC230F00C0E9
:100B500000C0002C88B92795889400C0002C58B993
:100B600000C014FF88B9E2FC230F2795889400C0C9
:100B700000C0002C88B9E3FC230F00C0002C58B93A
:100B800000C013FF88B927958894E4FC230F00C0A8
:100B900000C0002C88B92795889400C0002C58B953
:100BA00000C012FF88B9E5FC230F2795889400C088
:100BB00000C0002C88B9E6FC230F00C0002C58B9F7
:100BC00000C011FF88B927958894E7FC230F00C067
:100BD00000C0002C88B92795889400C0002C58B913
:100BE00000C010FF88B9132FE110122F419500C0EB
:100BF00000C0002C88B94A0D00C000C058B900C020
:100C000017FF88B931812227889400C000C0002CCA
:100C100088B93111390F00C0002C58B900C016FF37
:100C200088B908F43FEF9195889400C000C0002C6B
:100C300088B970FD230F00C0002C58B900C015FF03
:100C400088B92795889471FD230F00C000C0002C3F
:100C500088B92795889400C0002C58B900C014FFAB
:100C600088B972FD230F2795889400C000C0002C1E
:100C700088B973FD230F00C0002C58B900C013FFC2
:100C800088B92795889474FD230F00C000C0002CFC
:100C900088B92795889400C0002C58B900C012FF6D
:100CA00088B975FD230F2795889400C000C0002CDB
:100CB00088B976FD230F00C0002C58B900C011FF81
:100CC00088B92795889477FD230F00C000C0002CB9
:100CD00088B92795889400C0002C58B900C010FF2F
:100CE00088B9132F7111122F9D0D00C000C0002C68
:100CF00088B9119709F086CE20EE31E0D2010E942A
:100D00006A10DC01CB01F4E0B695A795979587951D
:100D1000FA95D1F720E030E0A9016AE9469E040C7B
:100D2000411D569E400D511D1124450D511D840F2E
:100D3000951FA11DB11D893E43E09407A105B10592
:100D400008F434C0885E9340A109B10942E0B69529
:100D5000A795979587954A95D1F747E0849F080E08
:100D6000211D949F200D311D1124290F311D6091EB
:100D70006F0170E0860F971F820F931F4091CD0186
:100D80005091CE016091CF017091D001292F33276E
:100D9000420F531F611D711D4093CD015093CE0131
:100DA0006093CF017093D00180936F0178940E947B
:100DB000AE0CF301708B6787DF91CF911F910F917C
:100DC000FF90EF90DF90CF90AF908F907F906F90DB
:100DD0005F904F90089580E991E00895399A0895C1
:100DE0004F925F926F927F928F92AF92CF92DF92EB
:100DF000EF92FF920F931F93CF93DF933C01EB0190
:100E00000F960E94A40DF894E881F98158B15260C0
:100E100088B18D7F88B9DA849F812D2D291B922F6F
:100E20002F836F854A805B807D85FC84EE847F5FA5
:100E3000F394E3943E814885C984AB841181D20147
:100E400020E0C32F022F322F3181112788943111D6
:100E5000390F08F43FEF9195889470FD130F1795A3
:100E6000889471FD130F1795889472FD130F1795D1
:100E7000889473FD130F1795889474FD130F1795BD
:100E8000889475FD130F1795889476FD130F1795A9
:100E9000889477FD130F17958894232F7111212FB4
:100EA0009D0D122F002C58B900C017FF88B9308152
:100EB0002227889400C000C0002C88B931113C0F53
:100EC00000C0002C58B900C016FF88B908F43FEFE5
:100ED000C195889400C000C0002C88B9F0FC230F95
:100EE00000C0002C58B900C015FF88B92795889418
:100EF000F1FC230F00C000C0002C88B9279588940E
:100F000000C0002C58B900C014FF88B9F2FC230FB0
:100F10002795889400C000C0002C88B9F3FC230FEB
:100F200000C0002C58B900C013FF88B927958894D9
:100F3000F4FC230F00C000C0002C88B927958894CA
:100F400000C0002C58B900C012FF88B9F5FC230F6F
:100F50002795889400C000C0002C88B9F6FC230FA8
:100F600000C0002C58B900C011FF88B9279588949B
:100F7000F7FC230F00C000C0002C88B92795889487
:100F800000C0002C58B900C010FF88B9132FF11011
:100F9000122FCC0D00C000C0002C88B900C000C0CA
:100FA000002C58B900C017FF88B9328122278894D5
:100FB00000C000C0002C88B93111340F00C0002CD3
:100FC00058B900C016FF88B908F43FEFE60FF11DCD
:100FD00000C000C0002C88B9E0FC230F00C0002C2A
:100FE00058B900C015FF88B927958894E1FC230FF4
:100FF00000C000C0002C88B92795889400C0002C40
:1010000058B900C014FF88B9E2FC230F27958894D3
:1010100000C000C0002C88B9E3FC230F00C0002CE6
:1010200058B900C013FF88B927958894E4FC230FB2
:1010300000C000C0002C88B92795889400C0002CFF
:1010400058B900C012FF88B9E5FC230F2795889492
:1010500000C000C0002C88B9E6FC230F00C0002CA3
:1010600058B900C011FF88B927958894E7FC230F71
:1010700000C000C0002C88B92795889400C0002CBF
:1010800058B900C010FF88B9132FE110122F4195F5
:1010900000C000C0002C88B94A0D00C000C058B97B
:1010A00000C017FF88B931812227889400C000C092
:1010B000002C88B93111390F00C0002C58B900C07C
:1010C00016FF88B908F43FEF9195889400C000C0DE
:1010D000002C88B970FD230F00C0002C58B900C047
:1010E00015FF88B92795889471FD230F00C000C0B3
:1010F000002C88B92795889400C0002C58B900C0EE
:1011000014FF88B972FD230F2795889400C000C092
:10111000002C88B973FD230F00C0002C58B900C003
:1011200013FF88B92795889474FD230F00C000C071
:10113000002C88B92795889400C0002C58B900C0AD
:1011400012FF88B975FD230F2795889400C000C051
:10115000002C88B976FD230F00C0002C58B900C0C0
:1011600011FF88B92795889477FD230F00C000C030
:10117000002C88B92795889400C0002C58B900C06D
:1011800010FF88B9132F7111122F9D0D00C000C0E0
:10119000002C88B9119709F086CE20EE31E0D201FB
:1011A0000E946A10DC01CB01F4E0B695A7959795F3
:1011B0008795FA95D1F720E030E0A9016AE9469ECB
:1011C000040C411D569E400D511D1124450D511D0D
:1011D000840F951FA11DB11D893E43E09407A10511
:1011E000B10508F434C0885E9340A109B10942E01A
:1011F000B695A795979587954A95D1F747E0849F2F
:10120000080E211D949F200D311D1124290F311D21
:1012100060916F0170E0860F971F820F931F4091BE
:10122000CD015091CE016091CF017091D001292F55
:101230003327420F531F611D711D4093CD01509301
:10124000CE016093CF017093D00180936F017894A9
:101250000E94AE0CF301708B6787DF91CF911F91D5
:101260000F91FF90EF90DF90CF90AF908F907F9095
:101270006F905F904F900895CF92DF92EF92FF9220
:101280000F931F93CF93DF936C017A018B01C0E022
:10129000D0E0CE15DF0589F0D8016D918D01D60122
:1012A000ED91FC910190F081E02DC6010995892B0B
:1012B00011F47E0102C02196ECCFC701DF91CF91DE
:1012C0001F910F91FF90EF90DF90CF9008950895B8
:1012D00080E090E00895FC01538D448D252F30E08F
:1012E000842F90E0821B930B541710F0CF96089533
:1012F00001970895FC01918D828D981761F0828D80
:10130000DF01A80FB11D5D968C91928D9F5F9F7339
:10131000928F90E008958FEF9FEF0895FC01918DDB
:10132000828D981731F0828DE80FF11D858D90E048
:1013300008958FEF9FEF08950E94A51083ED91E02F
:101340000E944E0C21E0892B09F420E0822F0895A1
:10135000EF92FF920F931F93CF93DF93EC0181E005
:10136000888F9B8D8C8D981305C0E889F9898081C1
:1013700085FD24C0F62E0B8D10E00F5F1F4F0F73FD
:101380001127E02E8C8DE8120CC00FB607FCFACFA7
:10139000E889F989808185FFF5CFCE010E94640C30
:1013A000F1CF8B8DFE01E80FF11DE35AFF4FF08264
:1013B0000B8FEA89FB898081806207C0EE89FF89F3
:1013C0006083E889F98980818064808381E090E08E
:1013D000DF91CF911F910F91FF90EF900895CF93E0
:1013E000DF93EC01888D8823C9F0EA89FB8980812D
:1013F00085FD05C0A889B9898C9186FD0FC00FB6FF
:1014000007FCF5CF808185FFF2CFA889B9898C913F
:1014100085FFEDCFCE010E94640CE7CFDF91CF9125
:1014200008951F920F920FB60F9211242F933F939E
:101430004F935F936F937F938F939F93AF93BF93DC
:10144000EF93FF9383ED91E00E94640CFF91EF9185
:10145000BF91AF919F918F917F916F915F914F91CC
:101460003F912F910F900FBE0F901F9018951F92D4
:101470000F920FB60F9211242F938F939F93EF9398
:10148000FF93E091E301F091E4018081E091E901B3
:10149000F091EA0182FD12C090818091EC018F5F92
:1014A0008F732091ED01821751F0E091EC01F0E093
:1014B000ED52FE4F958F8093EC0101C08081FF912A
:1014C000EF919F918F912F910F900FBE0F901F90D2
:1014D00018953F924F925F926F927F928F929F9258
:1014E000AF92BF92CF92DF92EF92FF920F931F9332
:1014F000CF93DF9300D01F92CDB7DEB7F82E809147
:10150000730290917402A0917502B0917602892BBA
:101510008A2B8B2BE9F00E94AE0C0091980310915E
:10152000990320919A0330919B03DC01CB01801B2E
:10153000910BA20BB30B00917302109174022091D6
:1015400075023091760280179107A207B307B8F2AF
:101550000E94AE0C609398037093990380939A0352
:1015600090939B03E0917B02F0917C02309759F0BD
:1015700040917702509178026091790270917A02DD
:101580008F2D0995F82E0091D1011091D2014F2C89
:10159000512C612C712C0115110509F461C0D80181
:1015A0001C96EC901C978091710290917202843687
:1015B000910510F41C961C92D801ED91FC91A2802B
:1015C000B38019821A821B82F11014C0F80145857C
:1015D0005685628173819E012F5F3F4FC801F501DF
:1015E0000995D8011C96EC921C9714960D911C91AC
:1015F0001597D1CFF8013996CE0101966C014801BB
:101600009CE0890E911CDF0113973C9021913320BF
:1016100001F12223F1F0822F90E0A0E0B0E09C01E4
:10162000AD012F5F3F4F4F4F5F4FC301B2010E948B
:1016300005109B01AC01832D90E0A0E0B0E0BC015F
:10164000CD016F5F7F4F8F4F9F4F0E940510D601D6
:101650008C93BFEFCB1ADB0AE815F905A1F6B6CFDC
:1016600080919603909197039C012F5F3F4F309399
:1016700097032093960349970CF447C08FB7F894CB
:101680000091CD011091CE012091CF013091D00178
:101690008FBFE0919603F091970388EE93E0E89F67
:1016A000B001E99F700DF89F700D1124072E000CFA
:1016B000880B990BC0909203D0909303E090940311
:1016C000F0909503A90198012C193D094E095F0975
:1016D0000E94291030937202209371021092970396
:1016E000109296032FB7F8948091CD019091CE017E
:1016F000A091CF01B091D0012FBF8093920390931E
:101700009303A0939403B09395030F900F900F90C1
:10171000DF91CF911F910F91FF90EF90DF90CF90CD
:10172000BF90AF909F908F907F906F905F904F9001
:101730003F9008951F93CF93DF93EEECF0E09491E8
:10174000EAEBF0E0D491E6EAF0E0C491CC23D9F0E2
:10175000182F992319F0892F0E94850CEC2FF0E0A7
:10176000EE0FFF1FE057FF4FA591B4918FB7F8948C
:10177000111105C09C91ED2FE095E92302C0EC9179
:10178000ED2BEC938FBFDF91CF911F910895CF93F5
:10179000DF93382F40917D028091820290918302E5
:1017A00023E04202A0011124E0918002F091810225
:1017B000DF011296E817F907C9F02081239F020E76
:1017C00020E0211D2083ED012A91239F020E20E0BD
:1017D000211D28832C91239F020E20E0211D2C9394
:1017E0001124E40FF51FA40FB51FE4CF8DE792E09D
:1017F000DF91CF910895EF92FF920F931F93CF93B4
:10180000DF93EC017B018A01E881F9810480F58195
:10181000E02D0995B801660F771F060F171FB70156
:10182000600F711F7B836A838EE190E09E878D87B6
:10183000E881F9810284F385E02DCE0109950097B6
:1018400029F19C0140E050E060E472E48FE090E018
:101850000E944B10722F632F00917302109174023B
:101860002091750230917602872F962FDA0180172A
:101870009107A207B30710F4D901C801809373023E
:1018800090937402A0937502B0937602CE01DF911B
:10189000CF911F910F91FF90EF900895FC01918DD2
:1018A000228D892F90E0805C9F4F821B91098F735E
:1018B0009927089580E090E0892B29F00E949E09E5
:1018C00081110C9400000895FC01848DDF01A80FA4
:1018D000B11DA35ABF4F2C91848D90E001968F7358
:1018E0009927848FA689B7892C93A089B1898C9177
:1018F00080648C93938D848D981306C00288F3893D
:10190000E02D80818F7D80830895833081F028F4DD
:10191000813099F08230A1F008958730A9F08830A5
:10192000B9F08430D1F4809180008F7D03C0809124
:1019300080008F7780938000089584B58F7702C0F0
:1019400084B58F7D84BD08958091B0008F7703C0EA
:101950008091B0008F7D8093B00008953FB7F894D8
:1019600080919E0390919F03A091A003B091A10349
:1019700026B5A89B05C02F3F19F00196A11DB11DEA
:101980003FBFBA2FA92F982F8827820F911DA11D25
:10199000B11DBC01CD0142E0660F771F881F991F62
:1019A0004A95D1F708958F929F92AF92BF92CF92AE
:1019B000DF92EF92FF926B017C010E94AE0C4B0113
:1019C0005C01C114D104E104F104F1F00E94AE0CF9
:1019D000DC01CB0188199909AA09BB09883E93400B
:1019E000A105B10570F321E0C21AD108E108F108A0
:1019F00088EE880E83E0981EA11CB11CC114D1048E
:101A0000E104F10419F7DDCFFF90EF90DF90CF9064
:101A1000BF90AF909F908F9008951F920F920FB636
:101A20000F9211242F933F938F939F93AF93BF9364
:101A30008091CD019091CE01A091CF01B091D001C4
:101A400030919D0323E0230F2D3720F40196A11D33
:101A5000B11D05C026E8230F0296A11DB11D2093DC
:101A60009D038093CD019093CE01A093CF01B093BD
:101A7000D00180919E0390919F03A091A003B0910B
:101A8000A1030196A11DB11D80939E0390939F0316
:101A9000A093A003B093A103BF91AF919F918F91A9
:101AA0003F912F910F900FBE0F901F901895EF92BE
:101AB000FF920F931F93CF93DF93EC0190919C03C0
:101AC0009F5F292F277020939C0390FF02C090E80E
:101AD00001C090E021FD9064247009F0906220E143
:101AE000290FFE013C967E018FE0E80EF11C00E01C
:101AF00011E06191662331F070E0C8010E94151079
:101B00006F5F01C060E0DF0114976C93322F369F46
:101B1000030E30E0311D1124CF010797311103C0AE
:101B2000EC01188203C03150EC013883662311F0B8
:101B300061506C93EE15FF05E1F6DF91CF911F9197
:101B40000F91FF90EF900895CF93DF93EC010E94E7
:101B5000AE0C28813981621B730B6A307105B8F3B2
:101B6000DF91CF910895789484B5826084BD84B567
:101B7000816084BD85B5826085BD85B5816085BD88
:101B800080916E00816080936E0010928100809140
:101B900081008260809381008091810081608093C8
:101BA0008100809180008160809380008091B100ED
:101BB00084608093B1008091B00081608093B00018
:101BC00080917A00846080937A0080917A008260AC
:101BD00080937A0080917A00816080937A0080916E
:101BE0007A00806880937A001092C100E091E3014E
:101BF000F091E40182E08083E091E301F091E4015F
:101C00001082E091DF01F091E0011082E091E101AA
:101C1000F091E20180E180831092EB01E091E70115
:101C2000F091E80186E08083E091E501F091E60122
:101C3000808180618083E091E501F091E6018081FF
:101C400088608083E091E501F091E6018081806801
:101C50008083E091E501F091E60180818F7D8083B2
:101C6000E7EBF0E02491E3EAF0E084918823C1F00F
:101C700090E0880F991FFC01E859FF4FC591D4915E
:101C8000FC01E057FF4FA591B4919FB7F89488816C
:101C9000E22FE0958E2388838C91E823EC939FBFFD
:101CA000EAEBF0E02491E6EAF0E08491882399F0F1
:101CB00090E0880F991FFC01E859FF4FA591B4915E
:101CC000FC01E057FF4F859194918FB7F894EC9108
:101CD000E22BEC938FBFE7EBF0E08491E3EAF0E0D6
:101CE0009491923051F420917E01282B20937E0113
:101CF00020917D01282B20937D01E5E8F0E0A4915F
:101D00009230D9F4B0E0AA0FBB1FAF58BE4F29E9FB
:101D100033E02D933C93E6E7F0E0A591B4919C91DC
:101D2000909370012BE630E03093800120937F0187
:101D300090916800916090936800A0917F01B091AC
:101D40008001EC918E2B8C93C0918002D091810206
:101D500080919201811111C081E891E00E940604F6
:101D6000109291011092900186E291E0909382018D
:101D70008093810181E08093920140E050E0BE01B8
:101D800081E891E00E94FB0BC0918002D09181021A
:101D90008091AB01811111C08AE991E00E94060493
:101DA0001092AA011092A90188E391E090939B01FF
:101DB00080939A0181E08093AB014EE150E0BE0137
:101DC0008AE991E00E94FB0BC0918002D0918102D0
:101DD0008091C401811111C083EB91E00E9406043F
:101DE0001092C3011092C2018AE491E09093B40171
:101DF0008093B30181E08093C4014CE350E0BE01C5
:101E000083EB91E00E94FB0B0E94990305E5F12C06
:101E10001BEA41E050E06AE671E083ED91E00E9448
:101E20003C09C9E7DFEF8AEF0E94C70B9091CC0114
:101E300081E0890F8093CC0180917D02E091800246
:101E4000F091810287FF03C0EC0FFD1F02C0EC1B65
:101E5000FD0B892F8F71880F880F880F382F309FC7
:101E6000030E30E0311D1124292F2074492F4072B8
:101E700097FD21C021110BC0411104C0832F809513
:101E8000932F12C095E5930F80E03BEA34C04111D7
:101E90000EC0282F5AEA259F020E20E0211D112492
:101EA000812F821B9AEA930F382F80E024C0932F52
:101EB0009095832F0FC0211112C041110DC0282F02
:101EC0003AEA239F020E20E0211D1124912F921B3C
:101ED00085E5820F30E00FC0832F80950BC0411144
:101EE00004C095E5930F812F03C09AEA930F802FCA
:101EF000831B392F90E0308391838283E0918002AD
:101F0000F0918102DF01AA57BF4FBF0167577F4F92
:101F10008EE290E00197E9F09D0122503109F9012C
:101F200040819B0122503109F90140839D012150DC
:101F30003109F90140819B0121503109F9014083A8
:101F40002C91FB01208313976D5F7F4F81309105AA
:101F500009F7809170020E94690A62E470E080E0F3
:101F600090E00E94D30C239609F05DCF0E945A0C9A
:101F700050CFE3EDF1E01382128288EE93E0A0E00F
:101F8000B0E084839583A683B7838CE591E0918349
:101F9000808385EC90E09587848784EC90E0978738
:101FA000868780EC90E0918B808B81EC90E0938B26
:101FB000828B82EC90E0958B848B86EC90E0978B03
:101FC000868B118E128E138E148EE0E7F2E08FEF67
:101FD000808312821182148613868FEF9FEFDC01BB
:101FE00087839087A187B287EDE7F2E081E0808365
:101FF0008AE590E09283818384E892E094838383EE
:1020000082E993E0968385830895DB018F939F9304
:102010000E947110BF91AF91A29F800D911DA39F4F
:10202000900DB29F900D1124089597FB072E16F482
:10203000009407D077FD09D00E947C1007FC05D0E2
:102040003EF4909581959F4F0895709561957F4FCF
:102050000895A1E21A2EAA1BBB1BFD010DC0AA1FE9
:10206000BB1FEE1FFF1FA217B307E407F50720F001
:10207000A21BB30BE40BF50B661F771F881F991F7C
:102080001A9469F760957095809590959B01AC01C5
:10209000BD01CF010895052E97FB1EF400940E9408
:1020A000621057FD07D00E94291007FC03D04EF4A0
:1020B0000C94621050954095309521953F4F4F4FAD
:1020C0005F4F089590958095709561957F4F8F4FE4
:1020D0009F4F08950E949610B7FF0895821B930B9F
:1020E00008950E949610A59F900DB49F900DA49FF7
:1020F000800D911D11240895AA1BBB1B51E107C03F
:10210000AA1FBB1FA617B70710F0A61BB70B881F87
:10211000991F5A95A9F780959095BC01CD01089516
:10212000EE0FFF1F0590F491E02D0994A29FB001DE
:10213000B39FC001A39F700D811D1124911DB29FFB
:10214000700D811D1124911D089581E090E0F89497
:082150000C94AA10F894FFCFD3
:10215800000000009C099C099C09A2009E009B00AD
:1021680000000000560312039C09A2009E009B0079
:102178009C0900000000560312039D04A2009E0063
:102188009A049F040000000056031203EE06A20002
:102198009E00EB06F00600000000560312039900AB
:1021A800A2009E009600C60000000000A8093C0995
:0C21B8006B09EF094E0C7A098E092E000D
:00000001FF
