:100000000C946C000C9475070C944E070C94EB0642
:100010000C9488060C9417060C9494000C9494008D
:100020000C9494000C9494000C9494000C94940000
:100030000C9494000C9494000C9494000C949400F0
:100040000C94CD050C9494000C94CC020C94A60254
:100050000C9494000C9494000C9494000C949400D0
:100060000C9494000C9494000000000024002700DD
:100070002A000000000023002600290000010203DE
:10008000040506070001020304050001020304053C
:1000900000000000250028002B00040404040404D0
:1000A0000404020202020202030303030303010227
:1000B00004081020408001020408102001020408F6
:1000C00010200000000800020100000304070000E7
:1000D000000000000000AA0B11241FBECFEFD8E0E3
:1000E000DEBFCDBF11E0A0E0B1E0EAE3F9E102C07C
:1000F00005900D92A633B107D9F722E0A6E3B1E04F
:1001000001C01D92AB3AB207E1F710E0CCE6D0E0B7
:1001100004C02197FE010E94810CCB36D107C9F79C
:100120000E94C9070C949B0C0C940000CF92DF92A4
:10013000EF92FF920F931F93CF93DF936C017A019D
:100140008B01C0E0D0E0CE15DF0589F0D8016D91BC
:100150008D01D601ED91FC910190F081E02DC60159
:100160000995892B11F47E0102C02196ECCFC701BD
:10017000DF91CF911F910F91FF90EF90DF90CF9083
:100180000895089580E090E00895FC01538D448D1A
:10019000252F30E0842F90E0821B930B541710F032
:1001A000CF96089501970895FC01918D828D98173F
:1001B00061F0828DDF01A80FB11D5D968C91928D4B
:1001C0009F5F9F73928F90E008958FEF9FEF089548
:1001D000FC01918D828D981731F0828DE80FF11D11
:1001E000858D90E008958FEF9FEF0895FC01918D2C
:1001F000228D892F90E0805C9F4F821B91098F7325
:100200009927089580EA91E00E94F60021E0892B69
:1002100009F420E0822F0895FC01848DDF01A80FEE
:10022000B11DA35ABF4F2C91848D90E001968F731E
:100230009927848FA689B7892C93A089B1898C913D
:1002400080648C93938D848D981306C00288F38903
:10025000E02D80818F7D80830895EF92FF920F9330
:100260001F93CF93DF93EC0181E0888F9B8D8C8D62
:10027000981305C0E889F989808185FD24C0F62E90
:100280000B8D10E00F5F1F4F0F731127E02E8C8D29
:10029000E8120CC00FB607FCFACFE889F989808113
:1002A00085FFF5CFCE010E940C01F1CF8B8DFE01B1
:1002B000E80FF11DE35AFF4FF0820B8FEA89FB89AB
:1002C0008081806207C0EE89FF896083E889F989AF
:1002D00080818064808381E090E0DF91CF911F91E5
:1002E0000F91FF90EF900895CF93DF93EC01888DED
:1002F0008823C9F0EA89FB89808185FD05C0A8892A
:10030000B9898C9186FD0FC00FB607FCF5CF8081AF
:1003100085FFF2CFA889B9898C9185FFEDCFCE01F9
:100320000E940C01E7CFDF91CF91089580E090E02B
:10033000892B29F00E94020181110C94000008957C
:10034000EF92FF920F931F93CF93DF93EC01909165
:1003500037019F5F292F27702093370190FF02C03C
:1003600090E801C090E021FD9064247009F0906253
:1003700020E1290FFE013C967E018FE0E80EF11C82
:1003800000E011E06191662331F070E0C8010E9445
:10039000060C6F5F01C060E0DF0114976C93322F91
:1003A000369F030E30E0311D1124CF010797311124
:1003B00003C0EC01188203C03150EC01388366237E
:1003C00011F061506C93EE15FF05E1F6DF91CF91CE
:1003D0001F910F91FF90EF90089580E991E00895AB
:1003E000569A08950F931F93CF93DF93CDB7DEB73F
:1003F00062970FB6F894DEBF0FBECDBF8C01F90136
:10040000DC011C968C917A8369835C834B835E83C9
:100410004D8390819D8791819E8792819F878130B6
:1004200029F4CE0101960E94A00106C01C861B86FD
:100430001A86198618861F8283E0888B1A8A198A81
:10044000D801ED91FC910484F585E02DBE016F5F2C
:100450007F4FC801099562960FB6F894DEBF0FBEB4
:10046000CDBFDF91CF911F910F9108950F931F93EF
:10047000CF93DF93CDB7DEB762970FB6F894DEBFA8
:100480000FBECDBF8C01F901DC011C968C917A83E3
:1004900069835C834B835E834D8390819D879181CB
:1004A0009E8792819F87813029F4CE0101960E9418
:1004B000A00106C01C861B861A86198618861F8214
:1004C000188A1A8A198AD801ED91FC910484F5855D
:1004D000E02DBE016F5F7F4FC801099562960FB690
:1004E000F894DEBF0FBECDBFDF91CF911F910F916A
:1004F000089580E090E00895FC0185859685089533
:10050000CF93DF9300D000D000D0CDB7DEB7AB01E2
:100510001C821D821E82DC01ED91FC910190F08114
:10052000E02D19821A821B829E012F5F3F4FBE0170
:100530006C5F7F4F099526960FB6F894DEBF0FBE0D
:10054000CDBFDF91CF9108950E94960C1F920F921C
:100550000FB60F9211242F933F934F935F936F9396
:100560007F938F939F93AF93BF93EF93FF9380EA13
:1005700091E00E940C01FF91EF91BF91AF919F918B
:100580008F917F916F915F914F913F912F910F903C
:100590000FBE0F901F9018951F920F920FB60F92DB
:1005A00011242F938F939F93EF93FF93E091B001CA
:1005B000F091B1018081E091B601F091B70182FD27
:1005C00012C090818091B9018F5F8F732091BA0121
:1005D000821751F0E091B901F0E0E056FE4F958F9F
:1005E0008093B90101C08081FF91EF919F918F911C
:1005F0002F910F900FBE0F901F901895833081F0B0
:1006000028F4813099F08230A1F008958730A9F064
:100610008830B9F08430D1F4809180008F7D03C0A0
:10062000809180008F7780938000089584B58F77C4
:1006300002C084B58F7D84BD08958091B0008F770E
:1006400003C08091B0008F7D8093B0000895CF9358
:10065000DF93E7ECF0E08491E3EBF0E0D491EFE995
:10066000F0E0C491CC2381F081110E94FE02EC2FB6
:10067000F0E0EE0FFF1FEE58FF4FA591B491EC9103
:10068000ED2311F081E001C080E0DF91CF910C9467
:100690009C073FB7F89480913D0190913E01A09155
:1006A0003F01B091400126B5A89B05C02F3F19F02E
:1006B0000196A11DB11D3FBFBA2FA92F982F8827E2
:1006C000820F911DA11DB11DBC01CD0142E0660F3D
:1006D000771F881F991F4A95D1F708954F925F920F
:1006E0006F927F928F92AF92BF92CF92EF92FF92D2
:1006F0000F931F93CF93DF933C01EB010E944903BB
:10070000F30127853089621B730B6A307105B0F3E2
:10071000F894E881F9815BB150648BB18F7B8BB920
:100720006A859F81262F291B922F2F83BF844A80A1
:100730005B807D85FC84EE847F5FF394E3943E814F
:100740004885A984CB841181D20120E0C32F022FD8
:10075000322F3181112788943111390F08F43FEF7E
:100760009195889470FD130F1795889471FD130F60
:100770001795889472FD130F1795889473FD130FC6
:100780001795889474FD130F1795889475FD130FB2
:100790001795889476FD130F1795889477FD130F9E
:1007A00017958894232F7111212F960F122F002C4B
:1007B0005BB900C017FF8BB930812227889400C035
:1007C00000C0002C8BB931113C0F00C0002C5BB96C
:1007D00000C016FF8BB908F43FEFC195889400C0A4
:1007E00000C0002C8BB9F0FC230F00C0002C5BB9BB
:1007F00000C015FF8BB927958894F1FC230F00C02A
:1008000000C0002C8BB92795889400C0002C5BB9E0
:1008100000C014FF8BB9F2FC230F2795889400C009
:1008200000C0002C8BB9F3FC230F00C0002C5BB977
:1008300000C013FF8BB927958894F4FC230F00C0E8
:1008400000C0002C8BB92795889400C0002C5BB9A0
:1008500000C012FF8BB9F5FC230F2795889400C0C8
:1008600000C0002C8BB9F6FC230F00C0002C5BB934
:1008700000C011FF8BB927958894F7FC230F00C0A7
:1008800000C0002C8BB92795889400C0002C5BB960
:1008900000C010FF8BB9132FF110122FCA0D00C02A
:1008A00000C0002C8BB900C000C0002C5BB900C098
:1008B00017FF8BB932812227889400C000C0002C1A
:1008C0008BB93111340F00C0002C5BB900C016FF8A
:1008D0008BB908F43FEFEB0DF11D00C000C0002CF8
:1008E0008BB9E0FC230F00C0002C5BB900C015FFE2
:1008F0008BB927958894E1FC230F00C000C0002C21
:100900008BB92795889400C0002C5BB900C014FFF8
:100910008BB9E2FC230F2795889400C000C0002CFF
:100920008BB9E3FC230F00C0002C5BB900C013FFA0
:100930008BB927958894E4FC230F00C000C0002CDD
:100940008BB92795889400C0002C5BB900C012FFBA
:100950008BB9E5FC230F2795889400C000C0002CBC
:100960008BB9E6FC230F00C0002C5BB900C011FF5F
:100970008BB927958894E7FC230F00C000C0002C9A
:100980008BB92795889400C0002C5BB900C010FF7C
:100990008BB9132FE110122F419500C000C0002C1D
:1009A0008BB94C0D00C000C05BB900C017FF8BB9FC
:1009B00031812227889400C000C0002C8BB93111EE
:1009C000390F00C0002C5BB900C016FF8BB908F4CA
:1009D0003FEF9195889400C000C0002C8BB970FD4A
:1009E000230F00C0002C5BB900C015FF8BB9279501
:1009F000889471FD230F00C000C0002C8BB927958F
:100A0000889400C0002C5BB900C014FF8BB972FD44
:100A1000230F2795889400C000C0002C8BB973FD6C
:100A2000230F00C0002C5BB900C013FF8BB92795C2
:100A3000889474FD230F00C000C0002C8BB927954B
:100A4000889400C0002C5BB900C012FF8BB975FD03
:100A5000230F2795889400C000C0002C8BB976FD29
:100A6000230F00C0002C5BB900C011FF8BB9279584
:100A7000889477FD230F00C000C0002C8BB9279508
:100A8000889400C0002C5BB900C010FF8BB9132FF5
:100A90007111122F960F00C000C0002C8BB9119756
:100AA00009F086CE20EE31E0D2010E945B0CDC0121
:100AB000CB01F4E0B695A79597958795FA95D1F770
:100AC00020E030E0A9016AE9469E040C411D569ED3
:100AD000400D511D1124450D511D840F951FA11D61
:100AE000B11D893E43E09407A105B10508F434C067
:100AF000885E9340A109B10942E0B695A795979504
:100B000087954A95D1F747E0849F080E211D949F51
:100B1000200D311D1124290F311D6091360170E027
:100B2000860F971F820F931F4091390150913A0110
:100B300060913B0170913C01292F3327420F531FD5
:100B4000611D711D4093390150933A0160933B013F
:100B500070933C018093360178940E944903F3011D
:100B6000708B6787DF91CF911F910F91FF90EF906E
:100B7000CF90BF90AF908F907F906F905F904F908D
:100B800008952FB7F8946091390170913A018091DE
:100B90003B0190913C012FBF08951F920F920FB619
:100BA0000F9211242F933F938F939F93AF93BF93F3
:100BB0008091390190913A01A0913B01B0913C01A3
:100BC0003091380123E0230F2D3720F40196A11D29
:100BD000B11D05C026E8230F0296A11DB11D20936B
:100BE00038018093390190933A01A0933B01B0936F
:100BF0003C0180913D0190913E01A0913F01B09157
:100C000040010196A11DB11D80933D0190933E01CD
:100C1000A0933F01B0934001BF91AF919F918F91FD
:100C20003F912F910F900FBE0F901F9018951F921C
:100C30000F920FB60F9211242F933F934F935F9310
:100C40006F937F938F939F93AF93BF93CF93EF93C4
:100C5000FF9329B1C091450190917301809170017A
:100C6000322F309583239223892B90916D00C227D8
:100C7000C923C82320934501CC23C1F1C0FF05C07F
:100C8000E0914601F09147010995C1FF05C0E0914F
:100C90004801F09149010995C2FF05C0E0914A0160
:100CA000F0914B010995C3FF05C0E0914C01F09113
:100CB0004D010995C4FF05C0E0914E01F0914F012F
:100CC0000995C5FF05C0E0915001F09151010995CA
:100CD000C6FF05C0E0915201F09153010995C7FF8D
:100CE00005C0E0915401F09155010995FF91EF91F4
:100CF000CF91BF91AF919F918F917F916F915F91B4
:100D00004F913F912F910F900FBE0F901F9018950C
:100D10001F920F920FB60F9211242F933F934F9370
:100D20005F936F937F938F939F93AF93BF93CF9373
:100D3000EF93FF9326B1C091560190917401809179
:100D40007101322F309583239223892B90916C006F
:100D5000C227C923C82320935601CC2351F1C0FFD9
:100D600005C0E0915701F09158010995C1FF05C0F8
:100D7000E0915901F0915A010995C2FF05C0E09137
:100D80005B01F0915C010995C3FF05C0E0915D0135
:100D9000F0915E010995C4FF05C0E0915F01F091FB
:100DA00060010995C5FF05C0E0916101F091620104
:100DB0000995FF91EF91CF91BF91AF919F918F9145
:100DC0007F916F915F914F913F912F910F900FBE47
:100DD0000F901F9018951F920F920FB60F9211242B
:100DE0002F933F934F935F936F937F938F939F9333
:100DF000AF93BF93CF93EF93FF9323B1C091630160
:100E00009091750180917201322F30958323922346
:100E1000892B90916B00C227C923C82320936301BB
:100E2000CC2351F1C0FF05C0E0916401F091650150
:100E30000995C1FF05C0E0916601F0916701099530
:100E4000C2FF05C0E0916801F09169010995C3FFF7
:100E500005C0E0916A01F0916B010995C4FF05C0DE
:100E6000E0916C01F0916D010995C5FF05C0E0911D
:100E70006E01F0916F010995FF91EF91CF91BF91B4
:100E8000AF919F918F917F916F915F914F913F9122
:100E90002F910F900FBE0F901F9018951F920F92D9
:100EA0000FB60F9211242F933F934F935F936F933D
:100EB0007F938F939F93AF93BF93EF93FF93E091B3
:100EC0004301F09144010995FF91EF91BF91AF91DA
:100ED0009F918F917F916F915F914F913F912F9152
:100EE0000F900FBE0F901F9018951F920F920FB684
:100EF0000F9211242F933F934F935F936F937F93A0
:100F00008F939F93AF93BF93EF93FF93E091410132
:100F1000F09142010995FF91EF91BF91AF919F919F
:100F20008F917F916F915F914F913F912F910F9092
:100F30000FBE0F901F9018951F93CF93DF93E9EC8E
:100F4000F0E09491E5EBF0E0D491E1EAF0E0C491B7
:100F5000CC23D9F0182F992319F0892F0E94FE0273
:100F6000EC2FF0E0EE0FFF1FE057FF4FA591B4917B
:100F70008FB7F894111105C09C91ED2FE095E923EE
:100F800002C0EC91ED2BEC938FBFDF91CF911F91BD
:100F90000895CF93DF93CDB7DEB729970FB6F894B6
:100FA000DEBF0FBECDBF789484B5826084BD84B5AA
:100FB000816084BD85B5826085BD85B5816085BD54
:100FC00080916E00816080936E001092810080910C
:100FD0008100826080938100809181008160809394
:100FE0008100809180008160809380008091B100B9
:100FF00084608093B1008091B00081608093B000E4
:1010000080917A00846080937A0080917A00826077
:1010100080937A0080917A00816080937A00809139
:101020007A00806880937A001092C100E091B0014C
:10103000F091B10182E08083E091B001F091B101C3
:101040001082E091AC01F091AD011082E091AE010F
:10105000F091AF0180E180831092B801E091B4017A
:10106000F091B50186E08083E091B201F091B30187
:10107000808180618083E091B201F091B301808131
:1010800088608083E091B201F091B3018081806833
:101090008083E091B201F091B30180818F7D8083E4
:1010A000E3EBF0E02491EFE9F0E084918823C9F0CC
:1010B00090E0880F991FFC01E859FF4F459154912A
:1010C000FC01E057FF4FA591B4919FB7F894FA0146
:1010D00080812095822380838C91E22FE823EC93FA
:1010E0009FBFE5EBF0E02491E1EAF0E084918823F2
:1010F00099F090E0880F991FFC01E859FF4FA591E6
:10110000B491FC01E057FF4F859194918FB7F8940B
:10111000EC91E22BEC938FBFE3EBF0E08491EFE9ED
:10112000F0E09491923059F420917501282B20938E
:10113000750120917201282B2093720119C0933000
:1011400059F420917401282B20937401209171018E
:10115000282B209371010CC0943051F4209173011D
:10116000282B2093730120917001282B209370016C
:10117000E1E8F0E0A4919230D1F4B0E0AA0FBB1FF7
:10118000AC59BE4F27E233E02D933C93E6E7F0E005
:10119000A591B4919C91909363012BE630E030933C
:1011A00077012093760190916800916037C0933069
:1011B000D1F4B0E0AA0FBB1FA95ABE4F27E233E01B
:1011C0002D933C93E8E7F0E0A591B4919C91909326
:1011D00056012CE630E03093770120937601909110
:1011E000680092601BC09430D9F4B0E0AA0FBB1F16
:1011F000AA5BBE4F27E233E02D933C93EAE7F0E091
:10120000A591B4919C91909345012DE630E03093E7
:101210007701209376019091680094609093680024
:10122000A0917601B0917701EC918E2B8C930E9466
:10123000270300914D0210914E0280918B01811184
:1012400045C010927D0110927C018FEF8093800148
:101250008093810180938201809383018093840134
:101260008093850181E0809386011092880110921D
:10127000870110927F0110927E01809199019091D7
:101280009A01892B31F48AE791E090939A01809337
:101290009901E0917801F0917901309721F08AE786
:1012A00091E0958384838AE791E09093790180931C
:1012B000780110928A011092890184E191E0909363
:1012C0007B0180937A0181E080938B01E0917A0128
:1012D000F0917B010480F581E02D8AE791E009958A
:1012E00010937D0100937C018EE190E09093880142
:1012F00080938701E0917A01F0917B010284F3856C
:10130000E02D8AE791E00995009729F19C0140E0E2
:1013100050E060E472E48FE090E00E943C0C722F99
:10132000632F0091400210914102209142023091BE
:101330004302872F962FDA0180179107A207B30780
:1013400010F4D901C8018093400290934102A09308
:101350004202B093430241E050E064E371E080EA6E
:1013600091E00E949600E12CF12C8BEAC82E80912E
:101370004A0240914F0250915002F3E08F02C001A7
:101380001124E0914D02F0914E028F010E5F1F4F2C
:10139000E417F507E1F0208135EF239F020E20E0EE
:1013A000211D2083D8016E9175EF679F060E60E0C6
:1013B000611D6C93D8012C91279F020E20E0211D06
:1013C0002C931124E80FF91F080F191FE1CF9091FA
:1013D0009F0181E0890F80939F0180914A02E091F3
:1013E0004D02F0914E0287FF03C0EE0DFF1D02C0BB
:1013F000EE19FF09892F8F71880F880F880F382FFA
:1014000025E5329F030E30E0311D1124292F207471
:10141000492F407297FD22C021110BC0411104C019
:10142000832F8095932F12C095E5930F80E03BEAC0
:1014300036C041110EC0282F5AEA259F020E20E027
:10144000211D11248C2D821B9AEA930F382F80E0E6
:1014500026C060E0932F9095832F0FC0211112C0FA
:1014600041110DC0282F7AEA279F020E20E0211D8E
:1014700011249C2D921B85E5820F30E010C0832F34
:1014800080950CC0411104C095E5930F8C2D04C0CC
:101490009AEA930F80E085E5831B392F90E0308333
:1014A00091838283E0914D02F0914E02DF019C9680
:1014B000BF01615D7F4F80E190E00197E9F09D0100
:1014C00022503109F90140819B0122503109F90173
:1014D00040839D0121503109F90140819B01215038
:1014E0003109F90140832C91FB01208313976D5F33
:1014F0007F4F8130910509F70E94C1052B013C0106
:101500000E9449034B015C010E944903DC01CB01AD
:1015100088199909AA09BB09883E9340A105B1051C
:1015200098F3D0903D028091400290914102A091A9
:101530004202B0914302892B8A2B8B2BE9F00E9447
:10154000490300919B0110919C0120919D013091D4
:101550009E01DC01CB01801B910BA20BB30B009110
:1015600040021091410220914202309143028017C3
:101570009107A207B307B8F20E94490360939B0149
:1015800070939C0180939D0190939E01E09148028D
:10159000F0914902309759F0409144025091450230
:1015A00060914602709147028D2D0995D82E0091C9
:1015B000990110919A018D2C912CA12CB12C01151F
:1015C000110509F46FC0D8011C96BC91BF838091AE
:1015D0003E0290913F028436910510F4F801148682
:1015E000D801ED91FC9122813381398728871982B6
:1015F0001A821B82D1101AC0D8011D964D915C91A0
:101600001E9712966D917C9113979E012F5F3F4F0D
:10161000C801E885F9850995EF81D8011C96EC93FE
:101620001C9714960D911C911597C9CFF801399606
:101630009E012F5F3F4F1901B801645F7F4F7E838A
:101640006D83DF0113977C917C832191772309F1CE
:101650002223F9F0822F90E0A0E0B0E09C01AD01E0
:101660002F5F3F4F4F4F5F4FC501B4010E94F60BF4
:101670009B01AC016C81862F90E0A0E0B0E0BC0142
:10168000CD016F5F7F4F8F4F9F4F0E94F60BD101AF
:101690008C93BFEF2B1A3B0A2D813E81E217F30793
:1016A00081F6AACF80919701909198018C010F5FEC
:1016B0001F4F109398010093970149978CF10E9456
:1016C000C1059B01AC0188EE93E0089FB001099F22
:1016D000700D189F700D1124072E000C880B990BAC
:1016E0008090930190909401A0909501B090960104
:1016F000281939094A095B090E941A0C30933F02E4
:1017000020933E0210929801109297010E94C10509
:101710006093930170939401809395019093960147
:101720000E94C105DC01CB0184199509A609B709FE
:1017300083369105A105B10508F4E2CE93E0E91ADC
:10174000F108A3EDEA16AFEFFA0609F010CE0E94F9
:10175000960101CEE0EAF1E01382128288EE93E076
:10176000A0E0B0E084839583A683B78386E291E00E
:101770009183808385EC90E09587848784EC90E06A
:101780009787868780EC90E0918B808B81EC90E04E
:10179000938B828B82EC90E0958B848B86EC90E02F
:1017A000978B868B118E128E138E148EEDE3F2E0E2
:1017B0008FEF808312821182148613868FEF9FEF42
:1017C000DC0187839087A187B287EAE4F2E081E0B9
:1017D00080838EE190E09283818381E592E094831F
:1017E00083838BEA92E0968385830895DB018F9350
:1017F0009F930E94620CBF91AF91A29F800D911D9B
:10180000A39F900DB29F900D1124089597FB072E72
:1018100016F4009407D077FD09D00E946D0C07FCE8
:1018200005D03EF4909581959F4F089570956195F0
:101830007F4F0895A1E21A2EAA1BBB1BFD010DC00C
:10184000AA1FBB1FEE1FFF1FA217B307E407F50770
:1018500020F0A21BB30BE40BF50B661F771F881F4C
:10186000991F1A9469F760957095809590959B01E2
:10187000AC01BD01CF010895052E97FB1EF4009425
:101880000E94530C57FD07D00E941A0C07FC03D08E
:101890004EF40C94530C50954095309521953F4F44
:1018A0004F4F5F4F089590958095709561957F4F4C
:1018B0008F4F9F4F08950E94870CB7FF0895821B9A
:1018C000930B08950E94870CA59F900DB49F900DD7
:1018D000A49F800D911D11240895AA1BBB1B51E1EB
:1018E00007C0AA1FBB1FA617B70710F0A61BB70B90
:1018F000881F991F5A95A9F780959095BC01CD0135
:101900000895EE0FFF1F0590F491E02D0994A29F1A
:10191000B001B39FC001A39F700D811D1124911DC3
:10192000B29F700D811D1124911D089581E090E0FA
:0A193000F8940C949B0CF894FFCF80
:10193A0000000000A402A402A40280027C02790230
:10194A00000000003602F201F00180027C02ED0183
:10195A006E03000000002D019600C5007401F60018
:06196A00D400E8002E008D
:00000001FF
