:100000000C946D000C9495000C9495000C94550480
:100010000C9495000C9495000C9495000C9495000C
:100020000C9495000C9495000C9495000C949500FC
:100030000C9495000C9495000C9495000C949500EC
:100040000C94190E0C9495000C948E0A0C94680A6A
:100050000C9495000C9495000C9495000C949500CC
:100060000C9495000C9495000000000024002700DB
:100070002A000000000023002600290000010203DE
:10008000040506070001020304050001020304053C
:1000900000000000250028002B00040404040404D0
:1000A0000404020202020202030303030303010227
:1000B00004081020408001020408102001020408F6
:1000C00010200000000800020100000304070000E7
:1000D0000000000000007F103A1111241FBECFEF76
:1000E000D8E0DEBFCDBF24E0A4E7B1E001C01D929F
:1000F000A235B207E1F711E0A0E0B1E0EAECF8E2E6
:1001000002C005900D92A437B107D9F710E0CCE6F4
:10011000D0E004C02197FE010E944612CB36D107E1
:10012000C9F70E94BF0E0C9458140C94000080E98B
:1001300091E00895389A089580E090E00895FC01D8
:10014000858596850895CF93DF9300D000D000D0A9
:10015000CDB7DEB7AB011C821D821E82DC01ED91A2
:10016000FC910190F081E02D19821A821B829E0180
:100170002F5F3F4FBE016C5F7F4F099526960FB6EC
:10018000F894DEBF0FBECDBFDF91CF9108954F929F
:100190005F926F927F928F92AF92CF92DF92EF92A7
:1001A000FF920F931F93CF93DF933C01EB010F96C8
:1001B0000E94B00EF894E881F98158B1516088B17D
:1001C0008E7F88B9DA849F812D2D291B922F2F8352
:1001D0006F854A805B807D85FC84EE847F5FF3942D
:1001E000E3943E814885C984AB841181D20120E02B
:1001F000C32F022F322F3181112788943111390FEB
:1002000008F43FEF9195889470FD130F179588942B
:1002100071FD130F1795889472FD130F179588942D
:1002200073FD130F1795889474FD130F1795889419
:1002300075FD130F1795889476FD130F1795889405
:1002400077FD130F17958894232F7111212F9D0D82
:10025000122F002C58B900C017FF88B9308122270F
:10026000889400C000C0002C88B931113C0F00C038
:10027000002C58B900C016FF88B908F43FEFC195AB
:10028000889400C000C0002C88B9F0FC230F00C087
:10029000002C58B900C015FF88B927958894F1FC47
:1002A000230F00C000C0002C88B92795889400C097
:1002B000002C58B900C014FF88B9F2FC230F279511
:1002C000889400C000C0002C88B9F3FC230F00C044
:1002D000002C58B900C013FF88B927958894F4FC06
:1002E000230F00C000C0002C88B92795889400C057
:1002F000002C58B900C012FF88B9F5FC230F2795D0
:10030000889400C000C0002C88B9F6FC230F00C000
:10031000002C58B900C011FF88B927958894F7FCC4
:10032000230F00C000C0002C88B92795889400C016
:10033000002C58B900C010FF88B9132FF110122FEC
:10034000CC0D00C000C0002C88B900C000C0002C3B
:1003500058B900C017FF88B932812227889400C09D
:1003600000C0002C88B93111340F00C0002C58B9DE
:1003700000C016FF88B908F43FEFE60FF11D00C07A
:1003800000C0002C88B9E0FC230F00C0002C58B935
:1003900000C015FF88B927958894E1FC230F00C0A1
:1003A00000C0002C88B92795889400C0002C58B94B
:1003B00000C014FF88B9E2FC230F2795889400C081
:1003C00000C0002C88B9E3FC230F00C0002C58B9F2
:1003D00000C013FF88B927958894E4FC230F00C060
:1003E00000C0002C88B92795889400C0002C58B90B
:1003F00000C012FF88B9E5FC230F2795889400C040
:1004000000C0002C88B9E6FC230F00C0002C58B9AE
:1004100000C011FF88B927958894E7FC230F00C01E
:1004200000C0002C88B92795889400C0002C58B9CA
:1004300000C010FF88B9132FE110122F419500C0A2
:1004400000C0002C88B94A0D00C000C058B900C0D7
:1004500017FF88B931812227889400C000C0002C82
:1004600088B93111390F00C0002C58B900C016FFEF
:1004700088B908F43FEF9195889400C000C0002C23
:1004800088B970FD230F00C0002C58B900C015FFBB
:1004900088B92795889471FD230F00C000C0002CF7
:1004A00088B92795889400C0002C58B900C014FF63
:1004B00088B972FD230F2795889400C000C0002CD6
:1004C00088B973FD230F00C0002C58B900C013FF7A
:1004D00088B92795889474FD230F00C000C0002CB4
:1004E00088B92795889400C0002C58B900C012FF25
:1004F00088B975FD230F2795889400C000C0002C93
:1005000088B976FD230F00C0002C58B900C011FF38
:1005100088B92795889477FD230F00C000C0002C70
:1005200088B92795889400C0002C58B900C010FFE6
:1005300088B9132F7111122F9D0D00C000C0002C1F
:1005400088B9119709F086CE20EE31E0D2010E94E1
:100550002B12DC01CB01F4E0B695A7959795879512
:10056000FA95D1F720E030E0A9016AE9469E040C33
:10057000411D569E400D511D1124450D511D840FE6
:10058000951FA11DB11D893E43E09407A105B1054A
:1005900008F434C0885E9340A109B10942E0B695E1
:1005A000A795979587954A95D1F747E0849F080EC0
:1005B000211D949F200D311D1124290F311D6091A3
:1005C000770170E0860F971F820F931F40913E02C4
:1005D00050913F026091400270914102292F3327D0
:1005E000420F531F611D711D40933E0250933F0205
:1005F00060934002709341028093770178940E9447
:10060000BA0DF301708B6787DF91CF911F910F9126
:10061000FF90EF90DF90CF90AF908F907F906F9092
:100620005F904F9008950F931F93CF93DF93CDB7B3
:10063000DEB762970FB6F894DEBF0FBECDBF8C0158
:10064000F901DC011C968C917A8369835C834B836E
:100650005E834D8390819D8791819E8792819F8744
:10066000813029F4CE0101960E94630E06C01C86DB
:100670001B861A86198618861F82188A1A8A198A72
:10068000D801ED91FC910484F585E02DBE016F5FEA
:100690007F4FC801099562960FB6F894DEBF0FBE72
:1006A000CDBFDF91CF911F910F9108950F931F93AD
:1006B000CF93DF93CDB7DEB762970FB6F894DEBF66
:1006C0000FBECDBF8C01F901DC011C968C917A83A1
:1006D00069835C834B835E834D8390819D87918189
:1006E0009E8792819F87813029F4CE0101960E94D6
:1006F000630E06C01C861B861A86198618861F8202
:1007000083E0888B1A8A198AD801ED91FC910484C0
:10071000F585E02DBE016F5F7F4FC8010995629698
:100720000FB6F894DEBF0FBECDBFDF91CF911F9102
:100730000F9108951F93CF93DF93EBECF0E084913A
:10074000E7EBF0E01491E3EAF0E0C491CC2391F1FF
:1007500081110E94910DEC2FF0E0EE0FFF1FEE587B
:10076000FF4FA591B491EC91E12321F181E00E942A
:100770002D0D81E080937601C0E0D0E01FEFCE0127
:100780000E94150DFC011083118312832196CA3536
:10079000D105A9F7C1E0C093E1028C2F0E94C00AE5
:1007A00061E270E080E090E00E94DF0DCF5FC43C2A
:1007B00091F74AC080E00E942D0D1092760110EE54
:1007C0008091F4024091F9025091FA0223E08202F2
:1007D000C0011124E091F702F091F802DF011296B6
:1007E000E417F507C9F02081219F020E20E0211DAA
:1007F0002083ED012A91219F020E20E0211D2883F4
:100800002C91219F020E20E0211D2C931124E80F32
:10081000F91FA80FB91FE4CF8091E1020E94C00A1E
:1008200062E470E080E090E00E94DF0D185009F073
:10083000C7CF80917601811107C061E270E080E04E
:1008400090E00E94DF0DF5CFDF91CF911F910895C9
:10085000FC018AE091E091838083138212828FEF02
:1008600086838783808781878287838781E08487E7
:100870001686158615821482809142029091430259
:10088000892B21F4F0934302E0934202A09174017A
:10089000B0917501109721F01596FC93EE93149783
:1008A000F0937501E093740108951F920F920FB6B3
:1008B0000F9211242F933F934F935F936F937F93E6
:1008C0008F939F93AF93BF93CF93EF93FF9323B1F6
:1008D000C09178019091860180918501322F3095E9
:1008E00083239223892B90916B00C227C923C823AD
:1008F00020937801CC2351F1C0FF05C0E09179012C
:10090000F0917A010995C1FF05C0E0917B01F0915A
:100910007C010995C2FF05C0E0917D01F0917E0147
:100920000995C3FF05C0E0917F01F0918001099511
:10093000C4FF05C0E0918101F09182010995C5FFD6
:1009400005C0E0918301F09184010995FF91EF9139
:10095000CF91BF91AF919F918F917F916F915F9157
:100960004F913F912F910F900FBE0F901F901895B0
:1009700080E991E008953A9A08954F925F926F92BC
:100980007F928F92AF92CF92DF92EF92FF920F936E
:100990001F93CF93DF933C01EB010F960E94B00EA3
:1009A000F894E881F98158B1546088B18B7F88B997
:1009B000DA849F812D2D291B922F2F836F854A80EA
:1009C0005B807D85FC84EE847F5FF394E3943E81BD
:1009D0004885C984AB841181D20120E0C32F022F46
:1009E000322F3181112788943111390F08F43FEFEC
:1009F0009195889470FD130F1795889471FD130FCE
:100A00001795889472FD130F1795889473FD130F33
:100A10001795889474FD130F1795889475FD130F1F
:100A20001795889476FD130F1795889477FD130F0B
:100A300017958894232F7111212F9D0D122F002CB3
:100A400058B900C017FF88B930812227889400C0A8
:100A500000C0002C88B931113C0F00C0002C58B9DF
:100A600000C016FF88B908F43FEFC195889400C014
:100A700000C0002C88B9F0FC230F00C0002C58B92E
:100A800000C015FF88B927958894F1FC230F00C09A
:100A900000C0002C88B92795889400C0002C58B954
:100AA00000C014FF88B9F2FC230F2795889400C07A
:100AB00000C0002C88B9F3FC230F00C0002C58B9EB
:100AC00000C013FF88B927958894F4FC230F00C059
:100AD00000C0002C88B92795889400C0002C58B914
:100AE00000C012FF88B9F5FC230F2795889400C039
:100AF00000C0002C88B9F6FC230F00C0002C58B9A8
:100B000000C011FF88B927958894F7FC230F00C017
:100B100000C0002C88B92795889400C0002C58B9D3
:100B200000C010FF88B9132FF110122FCC0D00C098
:100B300000C0002C88B900C000C0002C58B900C00B
:100B400017FF88B932812227889400C000C0002C8A
:100B500088B93111340F00C0002C58B900C016FFFD
:100B600088B908F43FEFE60FF11D00C000C0002C6B
:100B700088B9E0FC230F00C0002C58B900C015FF55
:100B800088B927958894E1FC230F00C000C0002C91
:100B900088B92795889400C0002C58B900C014FF6C
:100BA00088B9E2FC230F2795889400C000C0002C70
:100BB00088B9E3FC230F00C0002C58B900C013FF14
:100BC00088B927958894E4FC230F00C000C0002C4E
:100BD00088B92795889400C0002C58B900C012FF2E
:100BE00088B9E5FC230F2795889400C000C0002C2D
:100BF00088B9E6FC230F00C0002C58B900C011FFD3
:100C000088B927958894E7FC230F00C000C0002C0A
:100C100088B92795889400C0002C58B900C010FFEF
:100C200088B9132FE110122F419500C000C0002C8D
:100C300088B94A0D00C000C058B900C017FF88B974
:100C400031812227889400C000C0002C88B931115E
:100C5000390F00C0002C58B900C016FF88B908F43D
:100C60003FEF9195889400C000C0002C88B970FDBA
:100C7000230F00C0002C58B900C015FF88B9279574
:100C8000889471FD230F00C000C0002C88B92795FF
:100C9000889400C0002C58B900C014FF88B972FDB8
:100CA000230F2795889400C000C0002C88B973FDDD
:100CB000230F00C0002C58B900C013FF88B9279536
:100CC000889474FD230F00C000C0002C88B92795BC
:100CD000889400C0002C58B900C012FF88B975FD77
:100CE000230F2795889400C000C0002C88B976FD9A
:100CF000230F00C0002C58B900C011FF88B92795F8
:100D0000889477FD230F00C000C0002C88B9279578
:100D1000889400C0002C58B900C010FF88B9132F68
:100D20007111122F9D0D00C000C0002C88B91197C1
:100D300009F086CE20EE31E0D2010E942B12DC01B8
:100D4000CB01F4E0B695A79597958795FA95D1F7DD
:100D500020E030E0A9016AE9469E040C411D569E40
:100D6000400D511D1124450D511D840F951FA11DCE
:100D7000B11D893E43E09407A105B10508F434C0D4
:100D8000885E9340A109B10942E0B695A795979571
:100D900087954A95D1F747E0849F080E211D949FBF
:100DA000200D311D1124290F311D6091770170E054
:100DB000860F971F820F931F40913E0250913F0272
:100DC0006091400270914102292F3327420F531F37
:100DD000611D711D40933E0250933F02609340029B
:100DE000709341028093770178940E94BA0DF301C9
:100DF000708B6787DF91CF911F910F91FF90EF90DC
:100E0000DF90CF90AF908F907F906F905F904F90DA
:100E1000089580E991E00895399A08954F925F927C
:100E20006F927F928F92AF92CF92DF92EF92FF926A
:100E30000F931F93CF93DF933C01EB010F960E941A
:100E4000B00EF894E881F98158B1526088B18D7F75
:100E500088B9DA849F812D2D291B922F2F836F85CE
:100E60004A805B807D85FC84EE847F5FF394E3940D
:100E70003E814885C984AB841181D20120E0C32F13
:100E8000022F322F3181112788943111390F08F444
:100E90003FEF9195889470FD130F1795889471FD1D
:100EA000130F1795889472FD130F1795889473FD8F
:100EB000130F1795889474FD130F1795889475FD7B
:100EC000130F1795889476FD130F1795889477FD67
:100ED000130F17958894232F7111212F9D0D122F19
:100EE000002C58B900C017FF88B930812227889498
:100EF00000C000C0002C88B931113C0F00C0002C8C
:100F000058B900C016FF88B908F43FEFC19588941E
:100F100000C000C0002C88B9F0FC230F00C0002CDA
:100F200058B900C015FF88B927958894F1FC230FA4
:100F300000C000C0002C88B92795889400C0002C00
:100F400058B900C014FF88B9F2FC230F2795889484
:100F500000C000C0002C88B9F3FC230F00C0002C97
:100F600058B900C013FF88B927958894F4FC230F63
:100F700000C000C0002C88B92795889400C0002CC0
:100F800058B900C012FF88B9F5FC230F2795889443
:100F900000C000C0002C88B9F6FC230F00C0002C54
:100FA00058B900C011FF88B927958894F7FC230F22
:100FB00000C000C0002C88B92795889400C0002C80
:100FC00058B900C010FF88B9132FF110122FCC0DA3
:100FD00000C000C0002C88B900C000C0002C58B967
:100FE00000C017FF88B932812227889400C000C052
:100FF000002C88B93111340F00C0002C58B900C042
:1010000016FF88B908F43FEFE60FF11D00C000C0DD
:10101000002C88B9E0FC230F00C0002C58B900C098
:1010200015FF88B927958894E1FC230F00C000C004
:10103000002C88B92795889400C0002C58B900C0AE
:1010400014FF88B9E2FC230F2795889400C000C0E4
:10105000002C88B9E3FC230F00C0002C58B900C055
:1010600013FF88B927958894E4FC230F00C000C0C3
:10107000002C88B92795889400C0002C58B900C06E
:1010800012FF88B9E5FC230F2795889400C000C0A3
:10109000002C88B9E6FC230F00C0002C58B900C012
:1010A00011FF88B927958894E7FC230F00C000C082
:1010B000002C88B92795889400C0002C58B900C02E
:1010C00010FF88B9132FE110122F419500C000C006
:1010D000002C88B94A0D00C000C058B900C017FFE5
:1010E00088B931812227889400C000C0002C88B9BB
:1010F0003111390F00C0002C58B900C016FF88B953
:1011000008F43FEF9195889400C000C0002C88B986
:1011100070FD230F00C0002C58B900C015FF88B91E
:101120002795889471FD230F00C000C0002C88B95A
:101130002795889400C0002C58B900C014FF88B9C6
:1011400072FD230F2795889400C000C0002C88B939
:1011500073FD230F00C0002C58B900C013FF88B9DD
:101160002795889474FD230F00C000C0002C88B917
:101170002795889400C0002C58B900C012FF88B988
:1011800075FD230F2795889400C000C0002C88B9F6
:1011900076FD230F00C0002C58B900C011FF88B99C
:1011A0002795889477FD230F00C000C0002C88B9D4
:1011B0002795889400C0002C58B900C010FF88B94A
:1011C000132F7111122F9D0D00C000C0002C88B983
:1011D000119709F086CE20EE31E0D2010E942B1249
:1011E000DC01CB01F4E0B695A79597958795FA9524
:1011F000D1F720E030E0A9016AE9469E040C411DC8
:10120000569E400D511D1124450D511D840F951FF3
:10121000A11DB11D893E43E09407A105B10508F465
:1012200034C0885E9340A109B10942E0B695A79504
:10123000979587954A95D1F747E0849F080E211D21
:10124000949F200D311D1124290F311D60917701CC
:1012500070E0860F971F820F931F40913E025091BE
:101260003F026091400270914102292F3327420FC3
:10127000531F611D711D40933E0250933F026093C6
:101280004002709341028093770178940E94BA0DD6
:10129000F301708B6787DF91CF911F910F91FF90C2
:1012A000EF90DF90CF90AF908F907F906F905F9096
:1012B0004F900895CF92DF92EF92FF920F931F937A
:1012C000CF93DF936C017A018B01C0E0D0E0CE15A3
:1012D000DF0589F0D8016D918D01D601ED91FC916A
:1012E0000190F081E02DC6010995892B11F47E0152
:1012F00002C02196ECCFC701DF91CF911F910F91D2
:10130000FF90EF90DF90CF900895089580E090E0F7
:101310000895FC01538D448D252F30E0842F90E0FB
:10132000821B930B541710F0CF96089501970895E0
:10133000FC01918D828D981761F0828DDF01A80FDD
:10134000B11D5D968C91928D9F5F9F73928F90E0FF
:1013500008958FEF9FEF0895FC01918D828D98176E
:1013600031F0828DE80FF11D858D90E008958FEFAB
:101370009FEF08950E94431484E492E00E945A0D66
:1013800021E0892B09F420E0822F0895EF92FF924B
:101390000F931F93CF93DF93EC0181E0888F9B8D98
:1013A0008C8D981305C0E889F989808185FD24C05A
:1013B000F62E0B8D10E00F5F1F4F0F731127E02EDD
:1013C0008C8DE8120CC00FB607FCFACFE889F989BA
:1013D000808185FFF5CFCE010E94700DF1CF8B8DFE
:1013E000FE01E80FF11DE35AFF4FF0820B8FEA89EF
:1013F000FB898081806207C0EE89FF896083E8896C
:10140000F98980818064808381E090E0DF91CF91D1
:101410001F910F91FF90EF900895CF93DF93EC0110
:10142000888D8823C9F0EA89FB89808185FD05C004
:10143000A889B9898C9186FD0FC00FB607FCF5CF3E
:10144000808185FFF2CFA889B9898C9185FFEDCF86
:10145000CE010E94700DE7CFDF91CF9108950F93D9
:101460001F93CF93DF93EC0188819981009729F036
:101470002A813B812617370788F48B016F5F7F4FE6
:101480000E947913009761F0998388831B830A83F4
:101490002C813D81232B11F4FC01108281E001C0DD
:1014A00080E0DF91CF911F910F910895CF93DF934B
:1014B000EC0188819981009711F00E94E112198254
:1014C00018821D821C821B821A82DF91CF9108959F
:1014D0001F920F920FB60F9211242F933F934F93A9
:1014E0005F936F937F938F939F93AF93BF93EF938C
:1014F000FF9384E492E00E94700DFF91EF91BF9101
:10150000AF919F918F917F916F915F914F913F919B
:101510002F910F900FBE0F901F9018951F920F9252
:101520000FB60F9211242F938F939F93EF93FF93F6
:10153000E0915402F09155028081E0915A02F091BD
:101540005B0282FD12C0908180915D028F5F8F737C
:1015500020915E02821751F0E0915D02F0E0EC5BB9
:10156000FD4F958F80935D0201C08081FF91EF91C7
:101570009F918F912F910F900FBE0F901F901895F4
:101580003F924F925F926F927F928F929F92AF9213
:10159000BF92CF92DF92EF92FF920F931F93CF9360
:1015A000DF9300D01F92CDB7DEB7F82E8091E40212
:1015B0009091E502A091E602B091E702892B8A2B77
:1015C0008B2BE9F00E94BA0D009144041091450460
:1015D0002091460430914704DC01CB01801B910B24
:1015E000A20BB30B0091E4021091E5022091E602F8
:1015F0003091E70280179107A207B307B8F20E9463
:10160000BA0D60934404709345048093460490930C
:101610004704E091EC02F091ED02309759F04091CF
:10162000E8025091E9026091EA027091EB028F2D7D
:101630000995F82E00914202109143024F2C512C33
:10164000612C712C0115110509F461C0D8011C969B
:10165000EC901C978091E2029091E3028436910510
:1016600010F41C961C92D801ED91FC91A280B380DD
:1016700019821A821B82F11014C0F8014585568523
:10168000628173819E012F5F3F4FC801F50109956B
:10169000D8011C96EC921C9714960D911C911597ED
:1016A000D1CFF8013996CE0101966C0148019CE03A
:1016B000890E911CDF0113973C902191332001F199
:1016C0002223F1F0822F90E0A0E0B0E09C01AD0178
:1016D0002F5F3F4F4F4F5F4FC301B2010E94C611B2
:1016E0009B01AC01832D90E0A0E0B0E0BC01CD01F6
:1016F0006F5F7F4F8F4F9F4F0E94C611D6018C9313
:10170000BFEFCB1ADB0AE815F905A1F6B6CF809139
:101710004204909143049C012F5F3F4F3093430458
:101720002093420449970CF447C08FB7F894009176
:101730003E0210913F0220914002309141028FBF42
:10174000E0914204F091430488EE93E0E89FB001F9
:10175000E99F700DF89F700D1124072E000C880B67
:10176000990BC0903E04D0903F04E0904004F0906C
:101770004104A90198012C193D094E095F090E94F5
:10178000EA113093E3022093E20210924304109294
:1017900042042FB7F89480913E0290913F02A091AD
:1017A0004002B09141022FBF80933E0490933F04CA
:1017B000A0934004B09341040F900F900F90DF91DD
:1017C000CF911F910F91FF90EF90DF90CF90BF903E
:1017D000AF909F908F907F906F905F904F903F90D1
:1017E00008958F929F92AF92BF92CF92DF92EF9225
:1017F000FF920F931F93CF93DF93CDB7DEB72E9752
:101800000FB6F894DEBF0FBECDBF8C017B01809078
:101810003C0490903D041A8619861C861B861E8601
:101820001D86C090EE02D090EF02C114D104B9F031
:10183000A090F202B090F302B501CE0109960E9489
:101840002F0A811105C0CE0109960E94560A07C0D1
:10185000BE86AD86B60189859A850E945114CD84D5
:10186000DE848CE0C80ED11CB601CE0109960E9420
:101870002F0A882309F4D4C029853A858D859E8551
:1018800067E671E0820F931F0E945114DE86CD86B9
:101890004AE0DE0111965D01BD01C4010E944011C4
:1018A000F50101900020E9F73197EA19FB09CD8491
:1018B000DE843097C9F0CE0EDF1EB601CE01099648
:1018C0000E942F0A882361F029853A858D859E859F
:1018D000B501820F931F0E945114DE86CD8604C08D
:1018E000CE0109960E94560A4D855E8569857A85E6
:1018F00084E492E00E945A0942E050E064E671E01C
:1019000084E492E00E945A0989859A850E94E11236
:10191000C0903C04D0903D04A090F702B090F80233
:10192000D801ED91FC910480F581E02DC801099565
:10193000C601880F991FC80ED91ECA0CDB1CF801FE
:10194000D382C2828EE190E0968785870190F081F4
:10195000E02D0284F385E02DC8010995009729F157
:101960009C0140E050E060E472E48FE090E00E946F
:101970000C12722F632F0091E4021091E502209166
:10198000E6023091E702872F962FDA018017910740
:10199000A207B30710F4D901C8018093E402909321
:1019A000E502A093E602B093E70280913C04909197
:1019B0003D04BC01635E7F4FFC01EE0FFF1FE65745
:1019C000FE4F20E030E0AC01DF01A20FB31FE114B5
:1019D000F10419F48D939C9302C06D937C9301964E
:1019E0002E5F3F4F615071092C33310569F7CA01F1
:1019F0004E9690933D0480933C042E960FB6F89437
:101A0000DEBF0FBECDBFDF91CF911F910F91FF9031
:101A1000EF90DF90CF90BF90AF909F908F90089500
:101A2000CE0109960E94560A33CFAC018091F40290
:101A30002091F7023091F80287FF07C06DEF640331
:101A4000C001659F900D112405C0CA01880F991F20
:101A5000840F951F820F931F08951F93CF93DF93D9
:101A6000EEECF0E09491EAEBF0E0D491E6EAF0E0FD
:101A7000C491CC23D9F0182F992319F0892F0E94F3
:101A8000910DEC2FF0E0EE0FFF1FE057FF4FA591F7
:101A9000B4918FB7F894111105C09C91ED2FE0958A
:101AA000E92302C0EC91ED2BEC938FBFDF91CF9136
:101AB0001F910895FC01918D228D892F90E0805C0B
:101AC0009F4F821B91098F739927089580E090E0C2
:101AD000892B29F00E94BC0981110C940000089503
:101AE000FC01848DDF01A80FB11DA35ABF4F2C91BB
:101AF000848D90E001968F739927848FA689B7898A
:101B00002C93A089B1898C9180648C93938D848D62
:101B1000981306C00288F389E02D80818F7D808331
:101B20000895833081F028F4813099F08230A1F05B
:101B300008958730A9F08830B9F08430D1F48091CD
:101B400080008F7D03C0809180008F77809380001C
:101B5000089584B58F7702C084B58F7D84BD0895C4
:101B60008091B0008F7703C08091B0008F7D80930B
:101B7000B00008953FB7F89480914A0490914B04C7
:101B8000A0914C04B0914D0426B5A89B05C02F3FF1
:101B900019F00196A11DB11D3FBFBA2FA92F982F93
:101BA0008827820F911DA11DB11DBC01CD0142E00E
:101BB000660F771F881F991F4A95D1F708958F9256
:101BC0009F92AF92BF92CF92DF92EF92FF926B0102
:101BD0007C010E94BA0D4B015C01C114D104E104E7
:101BE000F104F1F00E94BA0DDC01CB0188199909CA
:101BF000AA09BB09883E9340A105B10570F321E015
:101C0000C21AD108E108F10888EE880E83E0981E18
:101C1000A11CB11CC114D104E104F10419F7DDCFFA
:101C2000FF90EF90DF90CF90BF90AF909F908F90FC
:101C300008951F920F920FB60F9211242F933F9386
:101C40008F939F93AF93BF9380913E0290913F02F9
:101C5000A0914002B09141023091490423E0230F4A
:101C60002D3720F40196A11DB11D05C026E8230FD4
:101C70000296A11DB11D2093490480933E029093CA
:101C80003F02A0934002B093410280914A04909198
:101C90004B04A0914C04B0914D040196A11DB11DBF
:101CA00080934A0490934B04A0934C04B0934D044A
:101CB000BF91AF919F918F913F912F910F900FBE48
:101CC0000F901F901895EF92FF920F931F93CF9351
:101CD000DF93EC01909148049F5F292F2770209398
:101CE000480490FF02C090E801C090E021FD90649C
:101CF000247009F0906220E1290FFE013C967E01DC
:101D00008FE0E80EF11C00E011E06191662331F0F4
:101D100070E0C8010E94D6116F5F01C060E0DF0172
:101D200014976C93322F369F030E30E0311D11242F
:101D3000CF010797311103C0EC01188203C0315065
:101D4000EC013883662311F061506C93EE15FF05AA
:101D5000E1F6DF91CF911F910F91FF90EF900895E1
:101D6000CF93DF93EC010E94BA0D28813981621B69
:101D7000730B6A307105B8F3DF91CF910895CF935B
:101D8000DF931F92CDB7DEB7789484B5826084BDAF
:101D900084B5816084BD85B5826085BD85B581606F
:101DA00085BD80916E00816080936E0010928100ED
:101DB00080918100826080938100809181008160A8
:101DC0008093810080918000816080938000809169
:101DD000B10084608093B1008091B00081608093F5
:101DE000B00080917A00846080937A0080917A00BC
:101DF000826080937A0080917A00816080937A007B
:101E000080917A00806880937A001092C100E091FE
:101E10005402F091550282E08083E0915402F091E7
:101E200055021082E0915002F09151021082E0912F
:101E30005202F091530280E1808310925C02E091A3
:101E40005802F091590286E08083E0915602F091A9
:101E50005702808180618083E0915602F0915702A1
:101E6000808188608083E0915602F09157028081E2
:101E700080688083E0915602F091570280818F7DC7
:101E80008083E7EBF0E02491E3EAF0E0849188239B
:101E9000C9F090E0880F991FFC01E859FF4F459168
:101EA0005491FC01E057FF4FA591B4919FB7F8946E
:101EB000FA0180812095822380838C91E22FE82390
:101EC000EC939FBFEAEBF0E02491E6EAF0E0849126
:101ED000882399F090E0880F991FFC01E859FF4F83
:101EE000A591B491FC01E057FF4F859194918FB774
:101EF000F894EC91E22BEC938FBFE7EBF0E0849148
:101F0000E3EAF0E09491923051F420918601282B7D
:101F10002093860120918501282B20938501E5E8F7
:101F2000F0E0A4919230D9F4B0E0AA0FBB1FA758FB
:101F3000BE4F2AE933E02D933C93E6E7F0E0A5910C
:101F4000B4919C91909378012BE630E03093880116
:101F50002093870190916800916090936800A09110
:101F60008701B0918801EC918E2B8C9361E070E039
:101F70008BE294E00E94F10B61E070E08AE194E072
:101F80000E94F10B60E070E089E094E00E94F10BA8
:101F90000E949A0325E5F22EE12C3BEA532E45E000
:101FA00050E06EE571E084E492E00E945A0942E05C
:101FB00050E064E671E084E492E00E945A098DE208
:101FC00090E00E94150DFC0100811181628020913A
:101FD000890181E0820F809389018DE290E029835D
:101FE0000E94150DFC012981922F9F71990F990F65
:101FF000990F392F4F2D349F030E30E0311D1124DE
:10200000522F5074822F807227FD20C051110BC0B7
:10201000811104C0932F9095432F11C045E5430FC4
:1020200090E03BEA35C081110DC0292F4AEA249F78
:10203000020E20E0211D1124952D921B430F392FF4
:1020400090E026C0432F4095932F0FC0511112C02E
:1020500081110DC0292F3AEA239F020E20E0211D95
:102060001124452D421B95E5920F30E011C0932FAE
:1020700090950DC0811106C025E5230F952D931B6A
:10208000322F05C08AEA830F9F2D931B382F40E023
:1020900030834183928384EEA82E81E0B82E96EEA1
:1020A000C92E91E0D92EF501929182915F010E9493
:1020B000150DFC0170808180928000831183628203
:1020C000F601819191916F010E94150DFC01008331
:1020D00011836282072D182D692CFEE3CF16F2E0E2
:1020E000DF0609F78091E1020E94C00A62E470E015
:1020F00080E090E00E94DF0D0E94660D50CF1092AC
:1021000047021092460288EE93E0A0E0B0E0809390
:10211000480290934902A0934A02B0934B028AE18D
:1021200091E0909345028093440285EC90E0909377
:1021300051028093500284EC90E09093530280937C
:10214000520280EC90E0909355028093540281EC0F
:1021500090E0909357028093560282EC90E0909327
:1021600059028093580286EC90E090935B02809332
:102170005A0210925D0210925E0210925F0210925B
:1021800060028FEF8093E1021092E3021092E2026C
:102190001092ED021092EC028FEF9FEFDC01809322
:1021A000E8029093E902A093EA02B093EB028BE27B
:1021B00094E00E94280410923B0410923A0480E5B7
:1021C00091E090932C0480932B048AE194E00E9488
:1021D000280410922A04109229048EE391E090932F
:1021E0001B0480931A0489E094E00E942804109252
:1021F0001904109218048CE291E090930A048093E1
:10220000090481E08093F4028AE590E09093F6025D
:102210008093F5028BEF92E09093F8028093F7029F
:1022200089E094E09093FA028093F9021092EF0211
:102230001092EE021092F1021092F0021092F3024C
:102240001092F20260E070E08EEE92E00E942F0A9F
:10225000811104C08EEE92E00C94560A1092F302A3
:102260001092F20266E671E08091EE029091EF0228
:102270000C9451148091EE029091EF020C94E112B3
:10228000BB274A3031F4992322F4BDE29095819521
:102290009F4F0C944C11BB27FB015527AA27880F91
:1022A000991FAA1FA41710F0A41B83955051B9F7CA
:1022B000A05DAA3308F0A95DA193009779F7B11149
:1022C000B1931192CB010C946511DC01FC01672FD5
:1022D00071917723E1F7329704C07C916D937083FD
:1022E0006291AE17BF07C8F308950E94B711A59F6A
:1022F000900DB49F900DA49F800D911D1124089501
:102300002F923F924F925F926F927F928F929F9205
:10231000AF92BF92CF92DF92EF92FF920F931F93F3
:10232000CF93DF93CDB7DEB7CA1BDB0B0FB6F894A4
:10233000DEBF0FBECDBF09942A88398848885F84E4
:102340006E847D848C849B84AA84B984C884DF8055
:10235000EE80FD800C811B81AA81B981CE0FD11D39
:102360000FB6F894DEBF0FBECDBFED010895A29F5A
:10237000B001B39FC001A39F700D811D1124911D59
:10238000B29F700D811D1124911D0895DB018F9363
:102390009F930E947511BF91AF91A29F800D911DD7
:1023A000A39F900DB29F900D1124089597FB072EC7
:1023B00016F4009407D077FD09D00E94321207FC72
:1023C00005D03EF4909581959F4F08957095619545
:1023D0007F4F0895A1E21A2EAA1BBB1BFD010DC061
:1023E000AA1FBB1FEE1FFF1FA217B307E407F507C5
:1023F00020F0A21BB30BE40BF50B661F771F881FA1
:10240000991F1A9469F760957095809590959B0136
:10241000AC01BD01CF010895052E97FB1EF4009479
:102420000E94231257FD07D00E94EA1107FC03D037
:102430004EF40C94231250954095309521953F4FC2
:102440004F4F5F4F089590958095709561957F4FA0
:102450008F4F9F4F08950E94B711B7FF0895821BB9
:10246000930B0895AA1BBB1B51E107C0AA1FBB1FFA
:10247000A617B70710F0A61BB70B881F991F5A9510
:10248000A9F780959095BC01CD010895EE0FFF1F2F
:102490000590F491E02D0994CF93DF93823091055C
:1024A00010F482E090E0E0915004F091510420E0BB
:1024B00030E0C0E0D0E0309711F140815181481701
:1024C0005907C0F04817590761F48281938120971A
:1024D00019F09B838A832BC09093510480935004FE
:1024E00026C02115310519F04217530718F49A0137
:1024F000BE01DF01EF010280F381E02DDCCF211569
:10250000310509F1281B390B2430310590F412965E
:102510008D919C9113976115710521F0FB019383B7
:10252000828304C09093510480935004FD0132963D
:1025300044C0FD01E20FF31F8193919322503109B2
:102540002D933C933AC020914E0430914F04232B9D
:1025500041F4209102013091030130934F04209304
:102560004E0420910001309101012115310541F403
:102570002DB73EB74091040150910501241B350B46
:10258000E0914E04F0914F04E217F307A0F42E1BE4
:102590003F0B2817390778F0AC014E5F5F4F2417C7
:1025A000350748F04E0F5F1F50934F0440934E0481
:1025B0008193919302C0E0E0F0E0CF01DF91CF91F1
:1025C00008950F931F93CF93DF93009709F48CC066
:1025D000FC01329713821282009150041091510431
:1025E0000115110581F420813181820F931F209103
:1025F0004E0430914F042817390779F5F0934F04B2
:10260000E0934E0471C0D80140E050E0AE17BF0720
:1026100050F412962D913C911397AD01211531057F
:1026200009F1D901F3CF9D01DA013383228360815F
:102630007181860F971F8217930769F4EC01288137
:102640003981260F371F2E5F3F4F318320838A81C8
:102650009B8193838283452B29F4F0935104E0936B
:10266000500442C01396FC93EE931297ED014991EA
:1026700059919E01240F351FE217F30771F48081F1
:102680009181840F951F029611969C938E9382815F
:10269000938113969C938E931297E0E0F0E0D8011B
:1026A00012968D919C911397009719F0F8018C0167
:1026B000F6CF8D919C9198012E5F3F4F820F931F13
:1026C00020914E0430914F042817390769F4309750
:1026D00029F4109251041092500402C01382128205
:1026E00010934F0400934E04DF91CF911F910F91EF
:1026F0000895A0E0B0E0EFE7F3E10C948411EC0161
:10270000009721F4CB010E944C12B8C0FC01E60FE7
:10271000F71F9C0122503109E217F30708F4ACC0FF
:10272000D9010D911C91119706171707B0F00530CC
:10273000110508F49FC0C80104978617970708F48D
:1027400099C002501109061B170B019311936D9349
:102750007C93CF010E94E1128DC05B01A01AB10AE7
:102760004C01800E911EA0915004B091510440E0A4
:1027700050E0E12CF12C109709F44AC0A815B905D6
:10278000D1F56D907C901197630182E0C80ED11C49
:10279000CA14DB0480F1A3014A195B096A0182E0D3
:1027A000C80ED11C1296BC9012971396AC91B5E04E
:1027B000CB16D10440F0B282A38351834083D90168
:1027C0006D937C930AC00E5F1F4FC301800F911F52
:1027D000F90191838083EB2DFA2FE114F10431F09C
:1027E000D7011396FC93EE93129744C0F0935104D3
:1027F000E09350043FC08D919C9111974817590761
:1028000008F4AC017D0112960D90BC91A02DB3CFC0
:1028100080914E0490914F0488159905E1F4461774
:102820005707C8F48091000190910101009741F48D
:102830008DB79EB74091040150910501841B950B03
:10284000E817F907C8F4F0934F04E0934E04F90138
:10285000718360830FC0CB010E944C127C010097F2
:1028600059F0A801BE010E944814CE010E94E11255
:10287000C70104C0CE0102C080E090E0CDB7DEB752
:10288000EEE00C94A01181E090E0F8940C945814C0
:10289000FB01DC0102C001900D9241505040D8F77D
:1028A0000895FB01DC0101900D920020E1F70895ED
:1028B00010E0CCE6D0E004C0FE010E944612219652
:0A28C000CD36D107C9F7F894FFCF19
:1028CA0000005204800000000000BA09BA09BA09DF
:1028DA00A3009F009C0000000000C6095A0989094C
:1028EA000D0A5A0D9809AC0900000000130356039B
:1028FA009A00A3009F009700C7000000000013037E
:10290A0056030C07A3009F0009070E0700000000EA
:10291A0013035603BB04A3009F00B804BD046C6FE5
:10292A006F7021000D0A004C6564436F756E742048
:04293A00697320009D
:00000001FF
