:107E0000112484B714BE982F9D7009F0D9D085E055
:107E10008093810082E08093C00088E18093C1005C
:107E200086E08093C20080E18093C4008EE0B3D0EE
:107E3000259A86E020E33CEF91E030938500209383
:107E4000840096BBB09BFECF1D9AA8958150A9F7E0
:107E5000D0E0C0E093E0F92EEE24E39425E0D22EAA
:107E600031E1C32E8CD0813471F489D0182F99D090
:107E700082E0123821F086E0113809F083E078D0F2
:107E800080E176D0EFCF823419F484E192D0F8CF3C
:107E9000853411F485E0FACF853549F470D0C82FC8
:107EA000D0E06DD0D82BCC0FDD1F7BD0E9CF86354D
:107EB00021F484E07ED080E0E2CF843609F039C03E
:107EC0005ED05DD0982E5BD0882E00E011E0580186
:107ED0008FEFA81AB80A53D0F801808385019A1051
:107EE000F6CF5FD0F5E48F1201C0FFCFFE01F7BEE1
:107EF000E89507B600FCFDCFFE01A0E0B1E09C9143
:107F00009D012E5F3F4F11968C91892798278927D5
:107F10000C01E7BEE89511243296D9019212EFCFF9
:107F2000FE01D7BEE89507B600FCFDCFC7BEE895B9
:107F3000A7CF843771F423D022D0B82E20D031D0EF
:107F40008E01F80185918F0113D0BA94B110F9CF49
:107F500097CF853739F425D08EE10AD085E908D04E
:107F60008FE08DCF813509F0A0CF88E014D09DCF70
:107F70009091C00095FFFCCF8093C600089580913A
:107F8000C00087FFFCCF8091C00084FD01C0A89590
:107F90008091C6000895E0E6F0E098E19083808348
:107FA0000895EDDF803219F088E0F5DFFFCF84E13E
:107FB000DFCFCF93C82FE3DFC150E9F7CF91F1CFE7
:0C7FC000282E80E0E8DFE0E0FF270994B5
:027FFE00020679
:0400000300007E007B
:00000001FF
